:020000040800F2
:10000000002000204D080008990800089908000801
:1000100000000000000000000000000000000000E0
:100020000000000000000000000000009908000827
:100030000000000000000000990800088902000884
:10004000990800089908000899080008990800080C
:1000500099080008990800089908000899080008FC
:1000600099080008990800089908000899080008EC
:1000700099080008990800089908000899080008DC
:100080009908000899080008000000009908000875
:1000900099080008990800089908000899080008BC
:1000A00099080008990800089908000899080008AC
:1000B00099080008000000009908000800000000EE
:1000C0005FF808F180B582B000AF78600A1CFB1CB5
:1000D0001A70FB1C1B78002B06D0084B074A51698D
:1000E0007A680A435A6106E0044B044A5269796807
:1000F000C9430A405A61BD4602B080BD00100240AB
:1001000080B582B000AF78600A1CFB1C1A70FB1C23
:100110001B78002B06D0084B074AD1697A680A433E
:10012000DA6106E0044B044AD2697968C9430A409F
:10013000DA61BD4602B080BD00100240B0B582B0A9
:1001400000AF021C3960FB1D1A70FB1D1B787F2B52
:100150002FD92D4CFB1D1B781A1C0F231340083B75
:100160009908294AFB1D1B78181C0F230340083BE4
:100170009B0806339B00D3185B68FA1D1278101C8D
:1001800003220240D200101CFF228240D2431A40B8
:100190003B689B01FF200340F81D0078051C0320ED
:1001A0002840C00083401A438B1D9B00E3185A600F
:1001B00026E0164CFB1D1B785BB29B081349FA1D09
:1001C000127852B29208C03292005258F91D097842
:1001D000081C03210140C900081CFF218140C943BC
:1001E00011403A689201FF200240F81D0078051C7A
:1001F00003202840C00082400A43C0339B001A51AC
:10020000BD4602B0B0BDC04600ED00E000E100E038
:1002100080B582B000AF78607B680E4A934201D906
:10022000012312E00C4B7A681202120A013A5A605A
:1002300001235B42181C0321FFF780FF064B0022BD
:100240009A60054B07221A600023181CBD4602B0B5
:1002500080BDC046FFFFFF0010E000E080B584B025
:1002600000AF7860074B1B68FB6000E0C046054BA1
:100270001A68FB68D21A7B689A42F7D3BD4604B06D
:1002800080BDC0461400002080B500AF034B1B6842
:100290005A1C024B1A60BD4680BDC04614000020A7
:1002A00090B585B002AF021CFB1D1A70BB1D0A1C65
:1002B0001A70C0462B4A80231B02101C191C00F028
:1002C000BDFB031E012BF5D0264A80235C0480234E
:1002D0009B010093101CD0210122231C00F060FB25
:1002E000C046204B181C022100F0A8FB031EF8D0CA
:1002F0001C4AFB1D1B78101C191C00F085FBC04616
:10030000184B181C802100F099FB031EF8D0154AE9
:1003100080239C0400230093101CD0210122231C65
:1003200000F03EFBC0460F4B181C022100F086FB7C
:10033000031EF8D00B4ABB1D1B78101C191C00F0C3
:1003400063FBC046074B181C202100F077FB031EFF
:10035000F8D0044B181C202100F096FBBD4603B0DA
:1003600090BDC0460058004090B587B002AF021C57
:10037000FB1D1A70C0462D4A80231B02101C191C3D
:1003800000F05CFB031E012BF5D0284A80239B0163
:100390000093101CD0210122002300F001FBC04675
:1003A000224B181C022100F049FB031EF8D01F4A03
:1003B000FB1D1B78101C191C00F026FBC0461B4BB4
:1003C000181C402100F03AFB031EF8D0174A802386
:1003D0009C0490239B010093101CD0210122231C1C
:1003E00000F0DEFAC046114B181C042100F026FB79
:1003F000031EF8D00F23FC180C4B181C00F012FB46
:10040000031C2370C046094B181C202100F016FB6A
:10041000031EF8D0054B181C202100F035FB0F23DC
:10042000FB181B78181CBD4605B090BD0058004055
:1004300080B582B000AF021CFB1D1A70FB1D1B783B
:100440003F2B01D9074B08E0FB1D1B780833DBB2BB
:10045000181CFFF789FF031C9BB21BB2181CBD467A
:1004600002B080BDFFFF000080B582B000AF021C6B
:10047000FB1D1A70BB1D0A1C1A70FB1D1B783F2B3D
:1004800001D9094B0AE0FB1D1B780833DAB2BB1D0A
:100490001B78101C191CFFF703FF00231BB2181C4C
:1004A000BD4602B080BDC046FFFF000090B585B0DC
:1004B00000AF78600F23FC180020FFF755FF031CE6
:1004C00023700E23FC180120FFF74EFF031C23703E
:1004D0000D23FC180220FFF747FF031C23700C2399
:1004E000FC180320FFF740FF031C23700B23FC18AC
:1004F0000420FFF739FF031C23700A23FC18052092
:10050000FFF732FF031C23700923FC180620FFF7B6
:100510002BFF031C23700F23FB181B780F221340A3
:10052000DAB20F23FB181B781B09DBB207210B4043
:10053000DBB2191C8900CB18DB18DBB2D318DAB296
:100540007B681A700E23FB181B780F221340DAB257
:100550000E23FB181B781B09DBB207210B40DBB213
:10056000191C8900CB18DB18DBB2D318DAB27B6810
:100570005A700D23FB181B780F221340DAB20D239B
:10058000FB181B781B09DBB203210B40DBB2191CE3
:100590008900CB18DB18DBB2D318DAB27B689A700B
:1005A0000C23FB181B7807221340DAB27B68DA7041
:1005B0000B23FB181B780F221340DAB20B23FB1816
:1005C0001B781B09DBB203210B40DBB2191C89002D
:1005D000CB18DB18DBB2D318DAB27B681A710A23A6
:1005E000FB181B780F221340DAB20A23FB181B7882
:1005F0001B09DBB201210B40DBB2191C8900CB18AF
:10060000DB18DBB2D318DAB27B685A710923FB1806
:100610001B780F221340DAB20923FB181B781B0941
:10062000DBB2191C8900CB18DB18DBB2D318DAB2A5
:100630007B689A71BD4605B090BDC04680B582B05A
:1006400000AF78607B680122DA707B6800221A7143
:100650007B6800225A717B6800229A717B680022B5
:100660009A707B6800225A707B6800221A70BD461F
:1006700002B080BD80B584B000AF8023DB02181CBF
:100680000121FFF71FFD8023DB03181C0121FFF769
:1006900037FD684B1B68181CFA23990000F098FB83
:1006A000031C181CFFF7B4FD634BC02212011A6033
:1006B000614B01229A71604B0122DA715E4B00227C
:1006C0005A715D4B02221A715C4A5B4B101C191C5B
:1006D00000F09CFA594B181C0B21012200F028FB5A
:1006E000564B181C0A21012200F022FB544B002219
:1006F0005A61534B00229A61514B00225A60504B71
:1007000000229A604E4B0022DA604D4B01221A61A2
:100710004B4B4C4A1A604C4A494B101C191C00F0B8
:10072000BDF8494B181C012100F01EF90A20FFF703
:1007300095FD07200021FFF7B3FD3B1D181CFFF7B7
:100740007DFF2023202B05D13323303BDAB23B1D24
:100750001A710EE02023303BDBB21A1C9200D31832
:10076000DB18DBB233229B18DBB2303BDAB23B1D25
:100770001A713B1D02225A713123303BDBB21A1C25
:100780009200D318DB18DBB235229B18DBB2303B6A
:10079000DAB23B1D9A713223303BDBB21A1C920055
:1007A000D318DB18DBB232229B18DBB2303BDAB253
:1007B0003B1D9A703323303BDBB21A1C9200D318D6
:1007C000DB18DBB239229B18DBB2303BDAB23B1DBF
:1007D0005A703323303BDBB21A1C9200D318DB185B
:1007E000DBB231229B18DBB2303BDAB23B1D1A7010
:1007F00000207B21FFF738FE0F23FB1863221A70BD
:100800003B1D181CFFF752FE0020FFF711FE031CD2
:100810001A1C0E23FB181A703B1D1B780F22BA18E6
:1008200012789A4204D00F23FB183A1D12781A70DE
:10083000E6E7C04600000020180000200004004841
:1008400020000020875F8010005800400C4885463B
:10085000002103E00B4B5B58435004310A480B4B1B
:1008600042189A42F6D30A4A02E000231360043287
:10087000084B9A42F9D300F013F9FFF7FBFEFEE7AD
:1008800000200020F40E00080000002014000020CA
:10089000140000203C000020FEE7000080B584B07A
:1008A00000AF786039600023FB607B681B68012221
:1008B00093431A1C7B681A607B681B68FB60FB68AB
:1008C000264A1340FB603B685A683B689B681B02E2
:1008D0001343FA681343FB607B68FA681A603B684D
:1008E0001B681F4A1A407B681A617B681B680122DB
:1008F0001A437B681A600023FB607B68FA689A6081
:100900007B68FA68DA603B689A693B681B69134345
:10091000FB607B68FA689A607B689B6880221202A1
:100920001A437B689A603B68DB68FB607B681A68E7
:10093000FB681A437B681A607B685B68FB60FB6836
:10094000084A1340FB603B685B69FA681343FB602D
:100950007B68FA685A60BD4604B080BDFFE0CF00F6
:10096000FFFFFFF0FF7FFF0780B582B000AF786028
:100970000A1CFB1C1A70FB1C1B78002B06D07B6822
:100980001B6801221A437B681A6006E07B681B68BB
:10099000012293431A1C7B681A60BD4602B080BDD9
:1009A00080B586B000AFF860081C111C7B600A237C
:1009B000FB18021C1A800923FB180A1C1A7000235A
:1009C0007B61FB685B687B617B690E4A13407B61DE
:1009D0000A23FB181B889B059A0D0923FB181B781B
:1009E0001904FF231B040B401A437B681A433B6A1C
:1009F00013437A6913437B61FB687A695A60BD4689
:100A000006B080BD009800FC80B582B000AF786071
:100A10000A1CFB1C1A70FB1C1A787B689A62BD4684
:100A200002B080BD80B582B000AF78607B685B6A41
:100A3000DBB2181CBD4602B080BDC04680B584B094
:100A400000AF786039600023BB600F23FB180022E1
:100A50001A707B689B69BB60BB683A681340BB60D7
:100A6000BB68002B04D00F23FB1801221A7003E08F
:100A70000F23FB1800221A700F23FB181B78181C79
:100A8000BD4604B080BDC04680B582B000AF78607E
:100A900039607B683A68DA61BD4602B080BDC04605
:100AA00080B500AF1B4B1B4A126801210A431A6034
:100AB000184B184A526818490A405A60154B154A93
:100AC000126816490A401A60124B124A12681449F9
:100AD0000A401A600F4B0F4A526812490A405A6086
:100AE0000C4B0C4AD26A0F218A43DA62094B094A3D
:100AF000126B0D490A401A63064B064A526B0121DC
:100B00008A435A63034B00229A6000F00FF8BD46F7
:100B100080BDC046001002400CB8FFF8FFFFF6FE93
:100B2000FFFFFBFFFFFFC0FFACFEFFFF80B582B001
:100B300000AF00237B6000233B60314B304A1268DA
:100B4000802149020A431A602D4B1A6880239B02B8
:100B500013403B607B6801337B603B68002B04D112
:100B60007A68A023DB019A42EED1254B1A688023D4
:100B70009B02134002D001233B6001E000233B6055
:100B80003B68012B38D11F4B11221A601C4B1C4AA9
:100B900052685A601A4B1A4A52685A60184B184ADF
:100BA000526819490A405A60154B154A5268882103
:100BB00049030A435A60124B114A126880214904C2
:100BC0000A431A60C0460E4B1A6880239B041340E8
:100BD000F9D00B4B0A4A526803218A435A60084BEA
:100BE000074A526802210A435A60C046044B5B68B8
:100BF0000C221340082BF9D1BD4602B080BDC0467F
:100C00000010024000200240FFFFC0FF80B586B008
:100C100000AF7860396000237B6100233B610023D3
:100C2000FB6000237B617CE07B6901229A40131CFE
:100C30003B613B681B683A691340FB60FA683B699B
:100C40009A426BD13B681B79012B03D03B681B791F
:100C5000022B34D17B689B687A695200111C0322F5
:100C60008A40D2431A407B689A607B689A683B68E6
:100C70005B79191C7B695B0099400B1C1A437B68EC
:100C80009A607B689B889BB27A6992B2111C0122A0
:100C90008A4092B2D24392B213409AB27B689A8051
:100CA0007B689B889AB23B689B79191C7B699BB2D5
:100CB00099400B1C9BB213439AB27B689A807B6865
:100CC0001B687A695200111C03228A40D2431A40E1
:100CD0007B681A607B681A683B681B79191C7B6902
:100CE0005B0099400B1C1A437B681A607B68DB68C9
:100CF0007A6992B25200032191400A1CD2431A40F1
:100D00007B68DA607B68DA683B68DB79191C7B6991
:100D10005B0099400B1C1A437B68DA607B690133E6
:100D20007B617B690F2B00D87EE7BD4606B080BD96
:100D300080B584B000AF7860081C111CBB1C021C7D
:100D40001A807B1C0A1C1A700023FB600023BB6006
:100D50007B1C1B78BA1C128807210A409200934022
:100D6000FB60BB1C1B88DB089BB2181CBB1C1B88D0
:100D7000DB089BB21A1C7B6808329200D358BA1C5D
:100D8000128807210A409200111C0F228A40D24388
:100D90001A40111C7B68021C08329200D150BB1C07
:100DA0001B88DB089BB21A1C7B6808329200D25861
:100DB000FB681343BB60BB1C1B88DB089BB21A1C7F
:100DC0007B6808329200B968D150BD4604B080BD3E
:100DD000002243088B4274D303098B425FD3030A7A
:100DE0008B4244D3030B8B4228D3030C8B420DD38D
:100DF000FF22090212BA030C8B4202D3121209021B
:100E000065D0030B8B4219D300E0090AC30B8B4258
:100E100001D3CB03C01A5241830B8B4201D38B0306
:100E2000C01A5241430B8B4201D34B03C01A5241AB
:100E3000030B8B4201D30B03C01A5241C30A8B42EE
:100E400001D3CB02C01A5241830A8B4201D38B02D9
:100E5000C01A5241430A8B4201D34B02C01A52417D
:100E6000030A8B4201D30B02C01A5241CDD2C309EF
:100E70008B4201D3CB01C01A524183098B4201D36B
:100E80008B01C01A524143098B4201D34B01C01A56
:100E9000524103098B4201D30B01C01A5241C308CE
:100EA0008B4201D3CB00C01A524183088B4201D33D
:100EB0008B00C01A524143088B4201D34B00C01A29
:100EC0005241411A00D20146524110467047FFE795
:100ED00001B5002000F00CF802BDC0460029F7D093
:100EE00003B5FFF775FF0EBC4243891A1847C04689
:040EF0007047C04641
:100EF400006CDC020000000000000000010203049A
:040F040006070809CB
:0400000508000000EF
:00000001FF
